S00C0000574454312E73726563F8
S11300000C9434000C9451000C9451000C94510045
S11300100C9451000C9451000C9409010C9451005F
S11300200C9451000C9451000C9451000C94510008
S11300300C9451000C9451000C9451000C945100F8
S11300400C9451000C9451000C9451000C945100E8
S11300500C9451000C9451000C9451000C945100D8
S11300600C9451000C94510011241FBECFEFD8E022
S1130070DEBFCDBF11E0A0E0B1E0E0EAF2E002C0F3
S113008005900D92A430B107D9F721E0A4E0B1E0C6
S113009001C01D92A630B207E1F70E94E1000C9462
S11300A04E010C9400009BB19F70282F207F922B4F
S11300B09BB95A985B9A35E03A95F1F700005B9842
S11300C0EFE1F3E03197F1F700C000002BB12F709E
S11300D0F0E18F9FC0011124822B8BB95B9A35E02C
S11300E03A95F1F700005B988FE39FE10197F1F7F0
S11300F000C0000008959BB19F70282F207F922B91
S11301009BB95A9A5B9A35E03A95F1F700005B98EF
S1130110EFE1F3E03197F1F700C000002BB12F704D
S1130120F0E18F9FC0011124822B8BB95B9A35E0DB
S11301303A95F1F700005B988FE39FE10197F1F79F
S113014000C0000008958FEF8AB92FEF89EF90E087
S1130150215080409040E1F700C0000082E00E94FE
S1130160530088E20E9453008CE00E94530086E012
S11301700E94530081E00E9453008FE39FE10197A6
S1130180F1F700C000000895CF93DF93EC0188815C
S1130190882331F021960E947B0089918111FBCF45
S11301A0DF91CF910895F894A89584B7877F84BF91
S11301B0E0E6F0E080818861808386E4808378943F
S11301C00895CF93DF93CDB7DEB72A970FB6F8948F
S11301D0DEBF0FBECDBF259A0E94D3000E94A300AC
S11301E080E80E94530080E091E00E94C400809166
S11301F00401909105014AE0BE016F5F7F4F0E94A8
S1130200240180EC0E945300CE0101960E94C40098
S1130210EECF1F920F920FB60F9211248F939F93DC
S113022080910401909105010196909305018093BA
S1130230040195B180E2892785B99F918F910F9030
S11302400FBE0F901F901895BB27FB015527AA27B7
S1130250880F991FAA1FA41710F0A41B839550514F
S1130260B9F7A05DAA3308F0A95DA193009779F7C7
S1130270B111B1931192CB010C943E01DC01FC014C
S1130280672F71917723E1F7329704C07C916D93C6
S113029070836291AE17BF07C8F30895F894FFCF37
S10702A05744540067
S9030000FC
